{
  "contractName": "VideoGames",
  "abi": [
    {
      "inputs": [],
      "payable": true,
      "stateMutability": "payable",
      "type": "constructor"
    },
    {
      "anonymous": false,
      "inputs": [
        {
          "indexed": true,
          "internalType": "address",
          "name": "_producerAddress",
          "type": "address"
        },
        {
          "indexed": true,
          "internalType": "string",
          "name": "_name",
          "type": "string"
        },
        {
          "indexed": true,
          "internalType": "string",
          "name": "_producer",
          "type": "string"
        },
        {
          "indexed": false,
          "internalType": "string",
          "name": "_description",
          "type": "string"
        },
        {
          "indexed": false,
          "internalType": "string",
          "name": "_imageLink",
          "type": "string"
        },
        {
          "indexed": false,
          "internalType": "uint256",
          "name": "_price",
          "type": "uint256"
        }
      ],
      "name": "AddGames",
      "type": "event"
    },
    {
      "constant": true,
      "inputs": [
        {
          "internalType": "uint256",
          "name": "",
          "type": "uint256"
        }
      ],
      "name": "AllVideoGames",
      "outputs": [
        {
          "internalType": "address",
          "name": "producerAddress",
          "type": "address"
        },
        {
          "internalType": "string",
          "name": "name",
          "type": "string"
        },
        {
          "internalType": "string",
          "name": "producer",
          "type": "string"
        },
        {
          "internalType": "string",
          "name": "description",
          "type": "string"
        },
        {
          "internalType": "string",
          "name": "imageLink",
          "type": "string"
        },
        {
          "internalType": "uint256",
          "name": "price",
          "type": "uint256"
        }
      ],
      "payable": false,
      "stateMutability": "view",
      "type": "function"
    },
    {
      "constant": true,
      "inputs": [],
      "name": "GameCounter",
      "outputs": [
        {
          "internalType": "uint256",
          "name": "",
          "type": "uint256"
        }
      ],
      "payable": false,
      "stateMutability": "view",
      "type": "function"
    },
    {
      "constant": true,
      "inputs": [
        {
          "internalType": "address",
          "name": "",
          "type": "address"
        },
        {
          "internalType": "uint256",
          "name": "",
          "type": "uint256"
        }
      ],
      "name": "VideoGamesOf",
      "outputs": [
        {
          "internalType": "address",
          "name": "producerAddress",
          "type": "address"
        },
        {
          "internalType": "string",
          "name": "name",
          "type": "string"
        },
        {
          "internalType": "string",
          "name": "producer",
          "type": "string"
        },
        {
          "internalType": "string",
          "name": "description",
          "type": "string"
        },
        {
          "internalType": "string",
          "name": "imageLink",
          "type": "string"
        },
        {
          "internalType": "uint256",
          "name": "price",
          "type": "uint256"
        }
      ],
      "payable": false,
      "stateMutability": "view",
      "type": "function"
    },
    {
      "constant": true,
      "inputs": [
        {
          "internalType": "string",
          "name": "s1",
          "type": "string"
        },
        {
          "internalType": "string",
          "name": "s2",
          "type": "string"
        }
      ],
      "name": "compareStringsbyBytes",
      "outputs": [
        {
          "internalType": "bool",
          "name": "",
          "type": "bool"
        }
      ],
      "payable": false,
      "stateMutability": "pure",
      "type": "function"
    },
    {
      "constant": false,
      "inputs": [
        {
          "internalType": "address",
          "name": "_producerAddress",
          "type": "address"
        },
        {
          "internalType": "string",
          "name": "_name",
          "type": "string"
        },
        {
          "internalType": "string",
          "name": "_producer",
          "type": "string"
        },
        {
          "internalType": "string",
          "name": "_description",
          "type": "string"
        },
        {
          "internalType": "string",
          "name": "_imageLink",
          "type": "string"
        },
        {
          "internalType": "uint256",
          "name": "_price",
          "type": "uint256"
        }
      ],
      "name": "addGames",
      "outputs": [
        {
          "internalType": "bool",
          "name": "success",
          "type": "bool"
        }
      ],
      "payable": false,
      "stateMutability": "nonpayable",
      "type": "function"
    },
    {
      "constant": true,
      "inputs": [
        {
          "internalType": "string",
          "name": "_name",
          "type": "string"
        }
      ],
      "name": "getGamesInfoBasedProducer",
      "outputs": [
        {
          "internalType": "address",
          "name": "",
          "type": "address"
        },
        {
          "internalType": "string",
          "name": "",
          "type": "string"
        },
        {
          "internalType": "string",
          "name": "",
          "type": "string"
        },
        {
          "internalType": "string",
          "name": "",
          "type": "string"
        },
        {
          "internalType": "string",
          "name": "",
          "type": "string"
        },
        {
          "internalType": "uint256",
          "name": "",
          "type": "uint256"
        }
      ],
      "payable": false,
      "stateMutability": "view",
      "type": "function"
    },
    {
      "constant": false,
      "inputs": [],
      "name": "getInfo",
      "outputs": [
        {
          "components": [
            {
              "internalType": "address",
              "name": "producerAddress",
              "type": "address"
            },
            {
              "internalType": "string",
              "name": "name",
              "type": "string"
            },
            {
              "internalType": "string",
              "name": "producer",
              "type": "string"
            },
            {
              "internalType": "string",
              "name": "description",
              "type": "string"
            },
            {
              "internalType": "string",
              "name": "imageLink",
              "type": "string"
            },
            {
              "internalType": "uint256",
              "name": "price",
              "type": "uint256"
            }
          ],
          "internalType": "struct VideoGames.VideoGame[]",
          "name": "",
          "type": "tuple[]"
        }
      ],
      "payable": false,
      "stateMutability": "nonpayable",
      "type": "function"
    },
    {
      "constant": false,
      "inputs": [
        {
          "internalType": "address",
          "name": "_producerAddress",
          "type": "address"
        },
        {
          "internalType": "string",
          "name": "_name",
          "type": "string"
        }
      ],
      "name": "deleteGame",
      "outputs": [
        {
          "internalType": "bool",
          "name": "success",
          "type": "bool"
        }
      ],
      "payable": true,
      "stateMutability": "payable",
      "type": "function"
    }
  ],
  "bytecode": "0x6080604052336000806101000a81548173ffffffffffffffffffffffffffffffffffffffff021916908373ffffffffffffffffffffffffffffffffffffffff160217905550612c4d806100536000396000f3fe60806040526004361061007b5760003560e01c8063900712051161004e5780639007120514610148578063c4b99e5e1461018a578063e9a734ff146101c7578063f1efb68b146102045761007b565b806327a3bb8d14610080578063400bca97146100b0578063479569a8146100f25780635a9b0b891461011d575b600080fd5b61009a60048036036100959190810190612421565b610246565b6040516100a791906129f1565b60405180910390f35b3480156100bc57600080fd5b506100d760048036036100d29190810190612647565b610ced565b6040516100e996959493929190612952565b60405180910390f35b3480156100fe57600080fd5b50610107610fb6565b6040516101149190612a51565b60405180910390f35b34801561012957600080fd5b50610132610fbc565b60405161013f91906129cf565b60405180910390f35b34801561015457600080fd5b5061016f600480360361016a919081019061259a565b611303565b604051610181969594939291906128d5565b60405180910390f35b34801561019657600080fd5b506101b160048036036101ac9190810190612475565b61185b565b6040516101be91906129f1565b60405180910390f35b3480156101d357600080fd5b506101ee60048036036101e991908101906125db565b611f3b565b6040516101fb91906129f1565b60405180910390f35b34801561021057600080fd5b5061022b6004803603610226919081019061255e565b611f94565b60405161023d96959493929190612952565b60405180910390f35b600080600090505b600380549050811015610ce15761031b6003828154811061026b57fe5b90600052602060002090600602016001018054600181600116156101000203166002900480601f0160208091040260200160405190810160405280929190818152602001828054600181600116156101000203166002900480156103105780601f106102e557610100808354040283529160200191610310565b820191906000526020600020905b8154815290600101906020018083116102f357829003601f168201915b505050505084611f3b565b15610cd45761032861226a565b6003828154811061033557fe5b90600052602060002090600602016040518060c00160405290816000820160009054906101000a900473ffffffffffffffffffffffffffffffffffffffff1673ffffffffffffffffffffffffffffffffffffffff1673ffffffffffffffffffffffffffffffffffffffff168152602001600182018054600181600116156101000203166002900480601f01602080910402602001604051908101604052809291908181526020018280546001816001161561010002031660029004801561043d5780601f106104125761010080835404028352916020019161043d565b820191906000526020600020905b81548152906001019060200180831161042057829003601f168201915b50505050508152602001600282018054600181600116156101000203166002900480601f0160208091040260200160405190810160405280929190818152602001828054600181600116156101000203166002900480156104df5780601f106104b4576101008083540402835291602001916104df565b820191906000526020600020905b8154815290600101906020018083116104c257829003601f168201915b50505050508152602001600382018054600181600116156101000203166002900480601f0160208091040260200160405190810160405280929190818152602001828054600181600116156101000203166002900480156105815780601f1061055657610100808354040283529160200191610581565b820191906000526020600020905b81548152906001019060200180831161056457829003601f168201915b50505050508152602001600482018054600181600116156101000203166002900480601f0160208091040260200160405190810160405280929190818152602001828054600181600116156101000203166002900480156106235780601f106105f857610100808354040283529160200191610623565b820191906000526020600020905b81548152906001019060200180831161060657829003601f168201915b5050505050815260200160058201548152505090506000816000015190508573ffffffffffffffffffffffffffffffffffffffff168173ffffffffffffffffffffffffffffffffffffffff161415610cd15760008090505b600260008873ffffffffffffffffffffffffffffffffffffffff1673ffffffffffffffffffffffffffffffffffffffff16815260200190815260200160002080549050811015610ccf576107c2600260008973ffffffffffffffffffffffffffffffffffffffff1673ffffffffffffffffffffffffffffffffffffffff168152602001908152602001600020828154811061071257fe5b90600052602060002090600602016001018054600181600116156101000203166002900480601f0160208091040260200160405190810160405280929190818152602001828054600181600116156101000203166002900480156107b75780601f1061078c576101008083540402835291602001916107b7565b820191906000526020600020905b81548152906001019060200180831161079a57829003601f168201915b505050505087611f3b565b15610cc2576107cf61226a565b600260008973ffffffffffffffffffffffffffffffffffffffff1673ffffffffffffffffffffffffffffffffffffffff168152602001908152602001600020828154811061081957fe5b90600052602060002090600602016040518060c00160405290816000820160009054906101000a900473ffffffffffffffffffffffffffffffffffffffff1673ffffffffffffffffffffffffffffffffffffffff1673ffffffffffffffffffffffffffffffffffffffff168152602001600182018054600181600116156101000203166002900480601f0160208091040260200160405190810160405280929190818152602001828054600181600116156101000203166002900480156109215780601f106108f657610100808354040283529160200191610921565b820191906000526020600020905b81548152906001019060200180831161090457829003601f168201915b50505050508152602001600282018054600181600116156101000203166002900480601f0160208091040260200160405190810160405280929190818152602001828054600181600116156101000203166002900480156109c35780601f10610998576101008083540402835291602001916109c3565b820191906000526020600020905b8154815290600101906020018083116109a657829003601f168201915b50505050508152602001600382018054600181600116156101000203166002900480601f016020809104026020016040519081016040528092919081815260200182805460018160011615610100020316600290048015610a655780601f10610a3a57610100808354040283529160200191610a65565b820191906000526020600020905b815481529060010190602001808311610a4857829003601f168201915b50505050508152602001600482018054600181600116156101000203166002900480601f016020809104026020016040519081016040528092919081815260200182805460018160011615610100020316600290048015610b075780601f10610adc57610100808354040283529160200191610b07565b820191906000526020600020905b815481529060010190602001808311610aea57829003601f168201915b5050505050815260200160058201548152505090506000816000015190508873ffffffffffffffffffffffffffffffffffffffff168173ffffffffffffffffffffffffffffffffffffffff161415610cbf5760038681548110610b6657fe5b9060005260206000209060060201600080820160006101000a81549073ffffffffffffffffffffffffffffffffffffffff0219169055600182016000610bac91906122b6565b600282016000610bbc91906122b6565b600382016000610bcc91906122b6565b600482016000610bdc91906122b6565b60058201600090555050600260008a73ffffffffffffffffffffffffffffffffffffffff1673ffffffffffffffffffffffffffffffffffffffff1681526020019081526020016000208381548110610c3057fe5b9060005260206000209060060201600080820160006101000a81549073ffffffffffffffffffffffffffffffffffffffff0219169055600182016000610c7691906122b6565b600282016000610c8691906122b6565b600382016000610c9691906122b6565b600482016000610ca691906122b6565b6005820160009055505060019650505050505050610ce7565b50505b808060010191505061067b565b505b50505b808060010191505061024e565b50600090505b92915050565b60038181548110610cfa57fe5b90600052602060002090600602016000915090508060000160009054906101000a900473ffffffffffffffffffffffffffffffffffffffff1690806001018054600181600116156101000203166002900480601f016020809104026020016040519081016040528092919081815260200182805460018160011615610100020316600290048015610dcc5780601f10610da157610100808354040283529160200191610dcc565b820191906000526020600020905b815481529060010190602001808311610daf57829003601f168201915b505050505090806002018054600181600116156101000203166002900480601f016020809104026020016040519081016040528092919081815260200182805460018160011615610100020316600290048015610e6a5780601f10610e3f57610100808354040283529160200191610e6a565b820191906000526020600020905b815481529060010190602001808311610e4d57829003601f168201915b505050505090806003018054600181600116156101000203166002900480601f016020809104026020016040519081016040528092919081815260200182805460018160011615610100020316600290048015610f085780601f10610edd57610100808354040283529160200191610f08565b820191906000526020600020905b815481529060010190602001808311610eeb57829003601f168201915b505050505090806004018054600181600116156101000203166002900480601f016020809104026020016040519081016040528092919081815260200182805460018160011615610100020316600290048015610fa65780601f10610f7b57610100808354040283529160200191610fa6565b820191906000526020600020905b815481529060010190602001808311610f8957829003601f168201915b5050505050908060050154905086565b60015481565b60606003805480602002602001604051908101604052809291908181526020016000905b828210156112fa57838290600052602060002090600602016040518060c00160405290816000820160009054906101000a900473ffffffffffffffffffffffffffffffffffffffff1673ffffffffffffffffffffffffffffffffffffffff1673ffffffffffffffffffffffffffffffffffffffff168152602001600182018054600181600116156101000203166002900480601f0160208091040260200160405190810160405280929190818152602001828054600181600116156101000203166002900480156110f25780601f106110c7576101008083540402835291602001916110f2565b820191906000526020600020905b8154815290600101906020018083116110d557829003601f168201915b50505050508152602001600282018054600181600116156101000203166002900480601f0160208091040260200160405190810160405280929190818152602001828054600181600116156101000203166002900480156111945780601f1061116957610100808354040283529160200191611194565b820191906000526020600020905b81548152906001019060200180831161117757829003601f168201915b50505050508152602001600382018054600181600116156101000203166002900480601f0160208091040260200160405190810160405280929190818152602001828054600181600116156101000203166002900480156112365780601f1061120b57610100808354040283529160200191611236565b820191906000526020600020905b81548152906001019060200180831161121957829003601f168201915b50505050508152602001600482018054600181600116156101000203166002900480601f0160208091040260200160405190810160405280929190818152602001828054600181600116156101000203166002900480156112d85780601f106112ad576101008083540402835291602001916112d8565b820191906000526020600020905b8154815290600101906020018083116112bb57829003601f168201915b5050505050815260200160058201548152505081526020019060010190610fe0565b50505050905090565b6000606080606080600080600090505b60038054905081101561175f576113e06003828154811061133057fe5b90600052602060002090600602016001018054600181600116156101000203166002900480601f0160208091040260200160405190810160405280929190818152602001828054600181600116156101000203166002900480156113d55780601f106113aa576101008083540402835291602001916113d5565b820191906000526020600020905b8154815290600101906020018083116113b857829003601f168201915b505050505089611f3b565b15611752576113ed61226a565b600382815481106113fa57fe5b90600052602060002090600602016040518060c00160405290816000820160009054906101000a900473ffffffffffffffffffffffffffffffffffffffff1673ffffffffffffffffffffffffffffffffffffffff1673ffffffffffffffffffffffffffffffffffffffff168152602001600182018054600181600116156101000203166002900480601f0160208091040260200160405190810160405280929190818152602001828054600181600116156101000203166002900480156115025780601f106114d757610100808354040283529160200191611502565b820191906000526020600020905b8154815290600101906020018083116114e557829003601f168201915b50505050508152602001600282018054600181600116156101000203166002900480601f0160208091040260200160405190810160405280929190818152602001828054600181600116156101000203166002900480156115a45780601f10611579576101008083540402835291602001916115a4565b820191906000526020600020905b81548152906001019060200180831161158757829003601f168201915b50505050508152602001600382018054600181600116156101000203166002900480601f0160208091040260200160405190810160405280929190818152602001828054600181600116156101000203166002900480156116465780601f1061161b57610100808354040283529160200191611646565b820191906000526020600020905b81548152906001019060200180831161162957829003601f168201915b50505050508152602001600482018054600181600116156101000203166002900480601f0160208091040260200160405190810160405280929190818152602001828054600181600116156101000203166002900480156116e85780601f106116bd576101008083540402835291602001916116e8565b820191906000526020600020905b8154815290600101906020018083116116cb57829003601f168201915b50505050508152602001600582015481525050905060008160000151905060608260200151905060608360400151905060608460600151905060608560800151905060008660a0015190508585858585859d509d509d509d509d509d505050505050505050611852565b8080600101915050611313565b503360018191506040518060400160405280600581526020017f77726f6e67000000000000000000000000000000000000000000000000000000815250906040518060400160405280600581526020017f77726f6e67000000000000000000000000000000000000000000000000000000815250906040518060400160405280600581526020017f77726f6e67000000000000000000000000000000000000000000000000000000815250906040518060400160405280600581526020017f77726f6e67000000000000000000000000000000000000000000000000000000815250908090509550955095509550955095505b91939550919395565b60006003805480602002602001604051908101604052809291908181526020016000905b82821015611b9957838290600052602060002090600602016040518060c00160405290816000820160009054906101000a900473ffffffffffffffffffffffffffffffffffffffff1673ffffffffffffffffffffffffffffffffffffffff1673ffffffffffffffffffffffffffffffffffffffff168152602001600182018054600181600116156101000203166002900480601f0160208091040260200160405190810160405280929190818152602001828054600181600116156101000203166002900480156119915780601f1061196657610100808354040283529160200191611991565b820191906000526020600020905b81548152906001019060200180831161197457829003601f168201915b50505050508152602001600282018054600181600116156101000203166002900480601f016020809104026020016040519081016040528092919081815260200182805460018160011615610100020316600290048015611a335780601f10611a0857610100808354040283529160200191611a33565b820191906000526020600020905b815481529060010190602001808311611a1657829003601f168201915b50505050508152602001600382018054600181600116156101000203166002900480601f016020809104026020016040519081016040528092919081815260200182805460018160011615610100020316600290048015611ad55780601f10611aaa57610100808354040283529160200191611ad5565b820191906000526020600020905b815481529060010190602001808311611ab857829003601f168201915b50505050508152602001600482018054600181600116156101000203166002900480601f016020809104026020016040519081016040528092919081815260200182805460018160011615610100020316600290048015611b775780601f10611b4c57610100808354040283529160200191611b77565b820191906000526020600020905b815481529060010190602001808311611b5a57829003601f168201915b505050505081526020016005820154815250508152602001906001019061187f565b5050505086600060019050611bac61226a565b60008090505b8451811015611bf657848181518110611bc757fe5b60200260200101519150611bdf826020015185611f3b565b15611be957600092505b8080600101915050611bb2565b5081611c0157600080fd5b611c0961226a565b8b816000019073ffffffffffffffffffffffffffffffffffffffff16908173ffffffffffffffffffffffffffffffffffffffff16815250508a8160200181905250898160400181905250888160600181905250878160800181905250868160a0018181525050600260008d73ffffffffffffffffffffffffffffffffffffffff1673ffffffffffffffffffffffffffffffffffffffff168152602001908152602001600020819080600181540180825580915050906001820390600052602060002090600602016000909192909190915060008201518160000160006101000a81548173ffffffffffffffffffffffffffffffffffffffff021916908373ffffffffffffffffffffffffffffffffffffffff1602179055506020820151816001019080519060200190611d3d9291906122fe565b506040820151816002019080519060200190611d5a9291906122fe565b506060820151816003019080519060200190611d779291906122fe565b506080820151816004019080519060200190611d949291906122fe565b5060a082015181600501555050506003819080600181540180825580915050906001820390600052602060002090600602016000909192909190915060008201518160000160006101000a81548173ffffffffffffffffffffffffffffffffffffffff021916908373ffffffffffffffffffffffffffffffffffffffff1602179055506020820151816001019080519060200190611e339291906122fe565b506040820151816002019080519060200190611e509291906122fe565b506060820151816003019080519060200190611e6d9291906122fe565b506080820151816004019080519060200190611e8a9291906122fe565b5060a0820151816005015550505089604051611ea691906128be565b60405180910390208b604051611ebc91906128be565b60405180910390208d73ffffffffffffffffffffffffffffffffffffffff167f60475d41188655b69bf0da789a41620a7587d2cb33a1eff777e4c337ae2e6a248c8c8c604051611f0e93929190612a0c565b60405180910390a46001600081548092919060010191905055506001955050505050509695505050505050565b600081604051602001611f4e91906128be565b6040516020818303038152906040528051906020012083604051602001611f7591906128be565b6040516020818303038152906040528051906020012014905092915050565b60026020528160005260406000208181548110611fad57fe5b9060005260206000209060060201600091509150508060000160009054906101000a900473ffffffffffffffffffffffffffffffffffffffff1690806001018054600181600116156101000203166002900480601f0160208091040260200160405190810160405280929190818152602001828054600181600116156101000203166002900480156120805780601f1061205557610100808354040283529160200191612080565b820191906000526020600020905b81548152906001019060200180831161206357829003601f168201915b505050505090806002018054600181600116156101000203166002900480601f01602080910402602001604051908101604052809291908181526020018280546001816001161561010002031660029004801561211e5780601f106120f35761010080835404028352916020019161211e565b820191906000526020600020905b81548152906001019060200180831161210157829003601f168201915b505050505090806003018054600181600116156101000203166002900480601f0160208091040260200160405190810160405280929190818152602001828054600181600116156101000203166002900480156121bc5780601f10612191576101008083540402835291602001916121bc565b820191906000526020600020905b81548152906001019060200180831161219f57829003601f168201915b505050505090806004018054600181600116156101000203166002900480601f01602080910402602001604051908101604052809291908181526020018280546001816001161561010002031660029004801561225a5780601f1061222f5761010080835404028352916020019161225a565b820191906000526020600020905b81548152906001019060200180831161223d57829003601f168201915b5050505050908060050154905086565b6040518060c00160405280600073ffffffffffffffffffffffffffffffffffffffff16815260200160608152602001606081526020016060815260200160608152602001600081525090565b50805460018160011615610100020316600290046000825580601f106122dc57506122fb565b601f0160209004906000526020600020908101906122fa919061237e565b5b50565b828054600181600116156101000203166002900490600052602060002090601f016020900481019282601f1061233f57805160ff191683800117855561236d565b8280016001018555821561236d579182015b8281111561236c578251825591602001919060010190612351565b5b50905061237a919061237e565b5090565b6123a091905b8082111561239c576000816000905550600101612384565b5090565b90565b6000813590506123b281612bdc565b92915050565b600082601f8301126123c957600080fd5b81356123dc6123d782612a99565b612a6c565b915080825260208301602083018583830111156123f857600080fd5b612403838284612b89565b50505092915050565b60008135905061241b81612bf3565b92915050565b6000806040838503121561243457600080fd5b6000612442858286016123a3565b925050602083013567ffffffffffffffff81111561245f57600080fd5b61246b858286016123b8565b9150509250929050565b60008060008060008060c0878903121561248e57600080fd5b600061249c89828a016123a3565b965050602087013567ffffffffffffffff8111156124b957600080fd5b6124c589828a016123b8565b955050604087013567ffffffffffffffff8111156124e257600080fd5b6124ee89828a016123b8565b945050606087013567ffffffffffffffff81111561250b57600080fd5b61251789828a016123b8565b935050608087013567ffffffffffffffff81111561253457600080fd5b61254089828a016123b8565b92505060a061255189828a0161240c565b9150509295509295509295565b6000806040838503121561257157600080fd5b600061257f858286016123a3565b92505060206125908582860161240c565b9150509250929050565b6000602082840312156125ac57600080fd5b600082013567ffffffffffffffff8111156125c657600080fd5b6125d2848285016123b8565b91505092915050565b600080604083850312156125ee57600080fd5b600083013567ffffffffffffffff81111561260857600080fd5b612614858286016123b8565b925050602083013567ffffffffffffffff81111561263157600080fd5b61263d858286016123b8565b9150509250929050565b60006020828403121561265957600080fd5b60006126678482850161240c565b91505092915050565b600061267c8383612802565b905092915050565b61268d81612b41565b82525050565b61269c81612b41565b82525050565b60006126ad82612ad5565b6126b78185612b03565b9350836020820285016126c985612ac5565b8060005b8581101561270557848403895281516126e68582612670565b94506126f183612af6565b925060208a019950506001810190506126cd565b50829750879550505050505092915050565b61272081612b53565b82525050565b600061273182612aeb565b61273b8185612b25565b935061274b818560208601612b98565b61275481612bcb565b840191505092915050565b600061276a82612aeb565b6127748185612b36565b9350612784818560208601612b98565b80840191505092915050565b600061279b82612ae0565b6127a58185612b14565b93506127b5818560208601612b98565b6127be81612bcb565b840191505092915050565b60006127d482612ae0565b6127de8185612b25565b93506127ee818560208601612b98565b6127f781612bcb565b840191505092915050565b600060c08301600083015161281a6000860182612684565b50602083015184820360208601526128328282612790565b9150506040830151848203604086015261284c8282612790565b915050606083015184820360608601526128668282612790565b915050608083015184820360808601526128808282612790565b91505060a083015161289560a08601826128a0565b508091505092915050565b6128a981612b7f565b82525050565b6128b881612b7f565b82525050565b60006128ca828461275f565b915081905092915050565b600060c0820190506128ea6000830189612693565b81810360208301526128fc8188612726565b905081810360408301526129108187612726565b905081810360608301526129248186612726565b905081810360808301526129388185612726565b905061294760a08301846128af565b979650505050505050565b600060c0820190506129676000830189612693565b818103602083015261297981886127c9565b9050818103604083015261298d81876127c9565b905081810360608301526129a181866127c9565b905081810360808301526129b581856127c9565b90506129c460a08301846128af565b979650505050505050565b600060208201905081810360008301526129e981846126a2565b905092915050565b6000602082019050612a066000830184612717565b92915050565b60006060820190508181036000830152612a268186612726565b90508181036020830152612a3a8185612726565b9050612a4960408301846128af565b949350505050565b6000602082019050612a6660008301846128af565b92915050565b6000604051905081810181811067ffffffffffffffff82111715612a8f57600080fd5b8060405250919050565b600067ffffffffffffffff821115612ab057600080fd5b601f19601f8301169050602081019050919050565b6000819050602082019050919050565b600081519050919050565b600081519050919050565b600081519050919050565b6000602082019050919050565b600082825260208201905092915050565b600082825260208201905092915050565b600082825260208201905092915050565b600081905092915050565b6000612b4c82612b5f565b9050919050565b60008115159050919050565b600073ffffffffffffffffffffffffffffffffffffffff82169050919050565b6000819050919050565b82818337600083830152505050565b60005b83811015612bb6578082015181840152602081019050612b9b565b83811115612bc5576000848401525b50505050565b6000601f19601f8301169050919050565b612be581612b41565b8114612bf057600080fd5b50565b612bfc81612b7f565b8114612c0757600080fd5b5056fea365627a7a72315820c257128d6481df1ec625034435686eceb4b7f4c44f01579ebaa8d30b109b44976c6578706572696d656e74616cf564736f6c63430005110040",
  "source": "pragma solidity ^0.5.0;\r\npragma experimental ABIEncoderV2;\r\n\r\n contract VideoGames {\r\n    \r\n    address owner;\r\n    uint public GameCounter;\r\n    \r\n    struct VideoGame {\r\n        address producerAddress;\r\n        string name;\r\n        string producer;\r\n        string description;\r\n        string imageLink;\r\n        uint price;\r\n    }\r\n    \r\n    mapping(address => VideoGame[]) public  VideoGamesOf;\r\n    VideoGame[] public AllVideoGames;\r\n\r\n    constructor () payable public  {\r\n        owner = msg.sender;\r\n    }\r\n  \r\n    modifier onlyOwner() {\r\n        require(msg.sender == owner);\r\n        _; \r\n    }\r\n\r\n    modifier GameExist(VideoGame[] memory AllVideoGames, string memory _name) {\r\n        bool value = true;\r\n\r\n        VideoGame memory videoGame;\r\n        for(uint i = 0; i < AllVideoGames.length; i++)\r\n        {\r\n            videoGame = AllVideoGames[i];\r\n            if(compareStringsbyBytes(videoGame.name,_name))\r\n            {\r\n                value = false;\r\n            }\r\n        }\r\n\r\n        require(value);\r\n        _;\r\n    }\r\n\r\n    event AddGames(address indexed _producerAddress, string indexed _name, string indexed _producer, string _description, string _imageLink, uint _price);\r\n\r\n\r\n    function compareStringsbyBytes(string memory s1, string memory s2) public pure returns(bool){\r\n    return keccak256(abi.encodePacked(s1)) == keccak256(abi.encodePacked(s2));\r\n        }\r\n\r\n    function addGames(address _producerAddress, string memory _name, string memory _producer, string memory _description, string memory _imageLink, uint _price) GameExist(AllVideoGames,_name) public returns (bool success) {\r\n       VideoGame memory videoGame;\r\n       //uint length = VideoGamesOf[_producerAddress].length;\r\n\r\n      //VideoGame memory videoGame = VideoGamesOf[_producerAddress][_game_id];//VideoGamesOf[_producerAddress];\r\n       videoGame.producerAddress = _producerAddress;\r\n       videoGame.name = _name;   \r\n       videoGame.producer = _producer;   \r\n       videoGame.description = _description;   \r\n       videoGame.imageLink= _imageLink;   \r\n       videoGame.price = _price; \r\n\r\n       VideoGamesOf[_producerAddress].push(videoGame);\r\n       AllVideoGames.push(videoGame);\r\n       \r\n       emit AddGames(_producerAddress, _name, _producer, _description, _imageLink, _price);\r\n       GameCounter++;\r\n       return true;\r\n    }\r\n\r\n    function getGamesInfoBasedProducer(string memory _name) public view returns (address , string memory, string memory ,string memory,string memory, uint ) {\r\n    \r\n    for(uint i = 0; i < AllVideoGames.length; i++)\r\n    {\r\n        if(compareStringsbyBytes(AllVideoGames[i].name,_name))\r\n        {\r\n            VideoGame  memory videoGame = AllVideoGames[i];\r\n            address _producerAddress = videoGame.producerAddress;\r\n            string  memory _name = videoGame.name;\r\n            string memory _producer = videoGame.producer;\r\n            string  memory _description = videoGame.description;\r\n            string  memory _imageLink = videoGame.imageLink;\r\n            uint _price = videoGame.price;\r\n        \r\n            return (_producerAddress, _name, _producer, _description, _imageLink, _price);\r\n        }\r\n        \r\n    }\r\n    return (msg.sender,\"wrong\",\"wrong\",\"wrong\",\"wrong\",1);\r\n    \r\n    \r\n\r\n   }\r\n   function getInfo() external returns(VideoGame [] memory ) \r\n   {\r\n    \r\n       return(AllVideoGames);\r\n   }\r\n\r\n\r\n   function deleteGame(address _producerAddress, string memory _name) public payable returns (bool success) {\r\n   \r\n   for(uint i = 0; i < AllVideoGames.length; i++)\r\n    {\r\n        if(compareStringsbyBytes(AllVideoGames[i].name,_name))\r\n        {\r\n            VideoGame  memory videoGame = AllVideoGames[i];\r\n            address curret_producerAddress = videoGame.producerAddress;\r\n            if(curret_producerAddress == _producerAddress)\r\n            {\r\n               for(uint k = 0; k < VideoGamesOf[_producerAddress].length; k++)\r\n               {\r\n                   if(compareStringsbyBytes(VideoGamesOf[_producerAddress][k].name,_name))\r\n                   {\r\n                       VideoGame  memory videoGame2 = VideoGamesOf[_producerAddress][k];\r\n                       address curret_producerAddress2 = videoGame2.producerAddress;\r\n                       if(curret_producerAddress2 == _producerAddress)\r\n                       {\r\n                           delete AllVideoGames[i];\r\n                           delete VideoGamesOf[_producerAddress][k];\r\n                           return true;\r\n                       } \r\n                   }              \r\n               }\r\n            }\r\n        \r\n        }\r\n        \r\n    }\r\n    return false;\r\n   }\r\n\r\n}",
  "sourcePath": "C:\\Users\\eyupb\\Desktop\\batuke\\GameChain\\src\\contracts\\VideoGames.sol",
  "compiler": {
    "name": "solc",
    "version": "0.5.17+commit.d19bba13.Emscripten.clang"
  },
  "schemaVersion": "3.4.7",
  "updatedAt": "2022-06-19T17:26:07.834Z",
  "networkType": "ethereum",
  "devdoc": {
    "methods": {}
  },
  "userdoc": {
    "methods": {}
  }
}